:100000000C9451030C941B100C9498030C949803BB
:100010000C9498030C9498030C9498030C949803F4
:100020000C9498030C9498030C9425230C94F723B8
:100030000C94251E0C9498030C9498030C9498032C
:100040000C9498030C9498030C9498030C949803C4
:100050000C9498030C947E1E0C9498030C949803B3
:100060000C9498030C9498030C9498030C949803A4
:100070000C9498030C9498030C9498030C94980394
:100080000C9498030C9498030C9498030C94980384
:100090000C9498030C9498030C9498030C94980374
:1000A0000C9498030C9498030C9498039E139E133D
:1000B000D013D0131D143B145C155C154614DB14CF
:1000C000EC14EC144C155C155C155515FC15FC1561
:1000D0000E160E1605160E160E160E16FC15FC152F
:1000E0000A160E160E160A1664248B2483258B24FA
:1000F0008325D724FA2483255125602514001A006E
:1001000008001500170004001668076209610A64F8
:100110001D001B0006001900050000000000000083
:1001200000002C0000004600015829002B0013009D
:1001300012000C0018001C0033000F780E720D71B5
:100140000B7434003700360010001100000000006E
:10015000000000002A000000E30002584C002800C4
:100160005C005A005B0059005D0021025700260226
:1001700027021F021E0220022F003000350000005F
:100180000000000000002C000000105000002900BA
:100190002B005F006100600062005E0055002D02D0
:1001A0006700560031002302540022022402380264
:1001B00000000000000000002A000000E7001350CB
:1001C0004C0028003A003B003C003D003E0044004B
:1001D000A8004D004A004B00AA00A900BE00BD00C7
:1001E0004E0000000000000000002C000000115034
:1001F000105029002B0043004200410040003F0006
:1002000045004F00520051005000B900AB00AD0056
:10021000AE00AC0000000000000000002A0000005A
:10022000E70000004C002800290014001A00080014
:100230001500E1000400160007000900E0001D00A1
:100240001B000600190000000000000000002C0048
:1002500000000000105000002B0000000000000013
:10026000000000000000000000000000000000008E
:10027000000000000000000000000000000000007E
:10028000000000000000010000000000010001006B
:100290000100010001000100010001000100010056
:1002A0000100010001000100010000000100010047
:1002B0000100010000000100010001000100010037
:1002C0000100010001000100010001000100010026
:1002D0000100010001000100010001000000010017
:1002E0000100010001000000010001000100010007
:1002F00001000100010001000100010001000100F6
:1003000001000100010001000100010001000000E6
:1003100001000100010001000000010001000100D6
:1003200001000100010001000100010001000100C5
:1003300001000100010001000100010001000100B5
:1003400000000100010001000100000001000100A7
:100350000100010001000100010001000100010095
:100360000100010001000100010001000100010085
:100370000100000001000100010001000000010077
:100380000100010001000100010001000100010065
:100390000100010001000100010001000100010055
:1003A0000100010000000100010001000100000047
:1003B0000100010001000100010001000100010035
:1003C0000100010001000100010001000100010025
:1003D0000100010001000000010001000100010016
:1003E0000000010001000100010001000100010006
:1003F00001000100010001000100010001000100F5
:1004000001000100010001000000010001000100E5
:1004100001000000010001000100010001000100D5
:1004200001000100010001000100010001000100C4
:1004300001000100010001000100000001000100B5
:1004400001000100000001000100010001000100A5
:100450000100010001000100010001000100010094
:100460000100010001000100010001000000010085
:100470000100010001000000010001000100010075
:10048000000000000000000000000000000000006C
:10049000000000000000000000000000000000005C
:1004A000000000000000000000000100000000004B
:1004B000000000000000000000000000000000003C
:1004C000000000000000000000000000000000002C
:1004D000000000000000000000000000000000001C
:1004E000000000000000000000000000000000000C
:1004F00000000000000000000000000000000000FC
:1005000000000000000000000000000000000000EB
:1005100001000000000000000000000000000000DA
:1005200000000000000000000000000000000000CB
:1005300000000000000000000000000000000000BB
:1005400000000000000000003C03680061006E0035
:100550006400770069007200650064002F00640089
:1005600061006300740079006C005F006D00610041
:100570006E00750066006F0072006D002F00340081
:100580007800350000000E037400730068006F00EF
:100590007200740000000403090409023B00020118
:1005A00000A0FA0904000001030101000921110162
:1005B00000012240000705810308000A0904010028
:1005C0000103000000092111010001227B00070541
:1005D000820320000A12011001000000084D44357A
:1005E0003401000102000105010902A1018502098F
:1005F00001A10005091901290815002501950875B3
:100600000181020501093009311581257F950275A7
:1006100008810609381581257F9501750881060531
:100620000C0A38021581257F950175088106C0C026
:1006300005010980A101850319012AB700150126CA
:10064000B700950175108100C0050C0901A1018555
:100650000419012AA002150126A002950175108136
:1006600000C005010906A101050719E029E71500E9
:10067000250195087501810295017508810105071D
:10068000190029FF150026FF009506750881000551
:1006900008190129059505750191029501750391C8
:1006A00001C011241FBECFEFDAE0DEBFCDBF04B61C
:1006B00003FE27C08091830290918402A09185025D
:1006C000B09186028730904BA740B04BD1F4109286
:1006D000830210928402109285021092860214BE48
:1006E00084B7877F84BF0FB6F894A8958091600087
:1006F000886180936000109260000FBEE0E0F8E334
:10070000099511E0A0E0B1E0E6E7FCE402C0059045
:100710000D92A839B107D9F722E0A8E9B1E001C0EC
:100720001D92A338B207E1F70E945F200C9439268E
:100730000C9400000C94AB0681E0089581E00895CC
:100740000C949E0308950C94A2031F93CF93DF9300
:1007500000D000D01F92CDB7DEB749835A836B8398
:100760003091D90189819A81311114C0662359F0E1
:10077000222349F00E94711B182F682F89819A81CA
:100780000E94181B03C00E94441B182F69817A81A4
:10079000812F04C00E94711B69817A810F900F9094
:1007A0000F900F900F90DF91CF911F910C946804E0
:1007B000FC01262F408151816281738184810C94D8
:1007C000A503CF93DF93EC0160E00E94D803BE0144
:1007D000DF91CF910C94A3030E9473060C949A03AB
:1007E0000C94A90608950E94EA150E94F2032FEFC7
:1007F00084E39CE0215080409040E1F700C000007D
:100800000C94E51E0F931F93CF93DF938C0161E04F
:100810000E94D803EC01B8010E94A0038823F1F1E3
:10082000B801CE010E94700D8823C1F1B801CE013C
:100830000E94C20D882391F1B801CE010E94ED0EF5
:10084000882361F1F8018281882309F1CB358DE598
:10085000D807C1F050F4C115FCE5DF0781F0CF3DAA
:10086000DC45A9F40E947C1D19C0CC35EDE5DE07FE
:1008700061F0CD35DD4559F40E94041C08C00E948A
:10088000F3030CC00E940D1C02C00E94101CC80182
:10089000DF91CF911F910F910C949C0380E0DF9129
:1008A000CF911F910F91089508950C94540481E005
:1008B00008950C945704CF93C82F0E9455048C2F91
:1008C0000E945904CF91089580E090E00895089522
:1008D00022E3829FC0011124FC0125E0729FE00DFC
:1008E000F11D1124E60FF11DEE0FFF1FE450FF4F25
:1008F000859194910895880F991FFC01E85BFA4F48
:10090000859194910895CF93DF930E9468040E948B
:100910009B05EC018115904508F041C0C11580E4AC
:10092000D80708F0D1C0C83ED10510F5C03ED105AA
:1009300008F0FDC0C83AD10578F4C53AD10508F0F1
:10094000A2C0C130D10509F4F2C008F4EEC0C43031
:10095000D10508F0ECC0E9C0CF3BD10508F49BC03D
:10096000C03CD10508F4E1C0CE01805C91099EC075
:10097000C11590E2D90758F4C11521E0D20708F05B
:10098000D6C0CD3ED10508F4D0C0D065D0C0C115C9
:1009900080E3D80708F08EC0CE019F7087C0C115D4
:1009A00095E5D90708F043C0C11524E5D20708F042
:1009B000A2C0C11582E5D80708F5C11591E5D90790
:1009C00008F085C0CE0174E0969587957A95E1F799
:1009D00083709C2F937021E030E002C0220F331F00
:1009E0009A95E2F73C68382BCF70C695C69580E2A1
:1009F000C89FE0011124C22BD32B99C09E01237004
:100A000033278C2F86958695C115D34508F064C091
:100A1000C1E0D0E002C0CC0FDD1F2A95E2F720E252
:100A2000829FC0011124C82BD92BDC6880C0C1155E
:100A300029E5D207A0F4C11588E5D80708F060C001
:100A4000C11596E5D90708F070C08C2F0E942F06BB
:100A50008F71C82FD0E0DC2FCC27D06268C0C115C1
:100A60002AE5D20708F451C0CE0190568115904274
:100A700008F05BC08D2F8F710E942F06DD27D0629A
:100A80008F71D82B54C0C55AD0E0C65BDE4FC881E9
:100A9000D0E0D0644CC0C85AD0E0CC0FDD1FC45E9B
:100AA000DE4F0990D881C02DD46441C00E947B04E0
:100AB000EC013DC0CE019927D3FF03C0EC01D86CF7
:100AC00036C0EC01D06C33C0DF70D06A30C0DC2F90
:100AD000CC27C16FD06A2BC0C1E0D0E002C0CC0FE0
:100AE000DD1F2A95E2F720E2829FC0011124C82B66
:100AF000D92BDA681CC0DC2FCC27C46FD06A17C092
:100B0000DC2FCC27C06FD06A12C08C2F8F700E9450
:100B10002F0694E0D695C7959A95E1F7CF70D0E06F
:100B2000DC2FCC27D069C82B02C0C0E0D0E0CE01BA
:100B3000DF91CF9108958238910569F1B0F4813346
:100B4000910509F46DC048F48932910509F463C038
:100B50008A32910509F469C008958533910509F435
:100B600055C089339105B9F00895833E910569F127
:100B700038F4803E9105B1F0823E910509F1089567
:100B8000863E9105A9F1873E9105B9F1843E910514
:100B900009F064C023C02091560220FD4FC021FD02
:100BA0004DC008958091560280FD44C08091570247
:100BB00080FF44C08091560284FD42C083EE4DC048
:100BC0008091560282FF38C0F5CF8091560282FD97
:100BD00033C08091570280FD31C0ECCF8091570225
:100BE00081FF32C08091560284FD2AC087EE35C055
:100BF0008091560283FF26C0F5CF8091560283FD77
:100C000021C08091570281FD1FC0ECCF8091560218
:100C100085FD1CC01DC08091560285FD19C016C0FF
:100C20008091560286FD16C017C08091560286FD3F
:100C300013C010C089E311C082EE0FC080EE0DC05A
:100C400080E00BC086EE09C084EE07C089E205C0D3
:100C500085E303C08AE201C081E390E008959091AA
:100C6000560292FF0DC0282F2871283019F4877F73
:100C7000846006C0282F2471243011F48B7F886093
:100C800093FF0DC0282F2871283119F4877E8461C5
:100C900006C0282F2471243111F48B7E88612091A5
:100CA000570220FF0DC0382F3871383019F4877F74
:100CB000816006C0382F3171313011F48E7F886029
:100CC00021FF0DC0282F2871283119F4877E8161FA
:100CD00006C0282F2171213111F48E7E886194FD88
:100CE000877E089508950E94D41C811102C00E943D
:100CF0007C1D0E94DF1C80934A020E94E71C909397
:100D00005702809356020E9472060E94E31C682FCD
:100D100070E080E090E00E941A1A609135027091B4
:100D2000360280913702909138020C94521AE82FC3
:100D3000F0E0EE59FD4F80810895089580EA8A958C
:100D4000F1F7089500C008950C949E0608950C9440
:100D5000A6060C94A7060C94A606F894E82FE29534
:100D6000EF70F0E031A1282F2F7081E090E001C0FA
:100D7000880F2A95EAF7982F9095932391A392A133
:100D8000892B82A37894089508950C94C4060E9438
:100D90004D088091000180910001811102C095E011
:100DA00001C090E090936D0285E0891B80936C02F6
:100DB00087EF0E94AD0681E30E94AD0683E30E94A7
:100DC000AD0682E30E94AD0686E30E94AD0686E68C
:100DD0000E94AD0687E90E94AD0686EC0E94AD0632
:100DE00084E30E94AD0685E30E94AD06E8E5F2E0EB
:100DF000A2E6B2E011921D9282E0E236F807D1F746
:100E000085E00E94FC070E94EC030C9457080F93A6
:100E10001F93CF93DF9300D000D01F92CDB7DEB7E2
:100E20000E94330860916D02882309F442C08E014C
:100E30000F5F1F4F85E0F80111928A95E9F7862F21
:100E400090E0B8018E599D4F0E942A0F811116C063
:100E500080919A018F5F80939A01863030F1E09102
:100E60006C02F0E0EE59FD4FD801CE0106961192CA
:100E70001D92A817B907D9F711E018C010929A016E
:100E8000A0916C02B0E0AE59BD4FF8019E012A5FFF
:100E90003F4F10E081919C91981711F08C9311E0D5
:100EA0001196E217F307B1F701C010E00E94F003BA
:100EB0000DC070E06E597D4F80916C0290E08E59AC
:100EC0009D4F0E94540F0E94C50610E0812F0F9085
:100ED0000F900F900F900F90DF91CF911F910F9176
:100EE00008958F929F92AF92BF92CF92DF92EF922E
:100EF000FF920F931F93CF93DF9382E5A82E81E09B
:100F0000B82EC8E5D2E097E5E92E91E0F92E912CB4
:100F100001E010E06501F5018081F894E82FE29589
:100F2000EF70F0E021A18F70A80102C0440F551F9F
:100F30008A95E2F7CA01922F982B91A392A18095EE
:100F4000892382A378940E94A206EDE4F1E020E0D8
:100F500030E0812C4191A42FA295AF70B0E0909623
:100F60008C9190E04F7002C0959587954A95E2F775
:100F700080FD07C0802F022E01C0880F0A94EAF777
:100F800001C080E0882A2F5F3F4F2530310511F7DF
:100F90005FEFA51AB50AF60180810E94AD060E9496
:100FA000A4068881881619F0888281E001C080E05B
:100FB000982A2196EA14FB0409F0ACCF60916D02E7
:100FC00070E06E597D4F292D45E088E592E00E9442
:100FD000FD070E940707992011F081E090E0DF9162
:100FE000CF911F910F91FF90EF90DF90CF90BF9026
:100FF000AF909F908F9008950895FF920F931F9345
:10100000CF93DF938C01F62ED72FC42F222349F0E4
:1010100081E080939D010E94571E90939C018093D4
:101020009B0180919D018823C1F080919B0190914B
:101030009C010E946F1E069780F0EF2DFD2FD801B6
:101040004C2F50E0CD01801B910B841795071CF4A9
:101050008D918193F7CF10929D01DF91CF911F91D8
:101060000F91FF90089580919E0181110DC00E9403
:10107000BC25811102C082E001C081E080939E0105
:10108000823011F40E94B72581E090919E01913049
:1010900009F080E008950C9433080E944B08809377
:1010A00000010E94330881110C941E0F08950E94C4
:1010B0003308811102C00C94240F0895833081F10C
:1010C00028F4813059F08230D1F00895853009F448
:1010D00049C0B8F1863009F456C008958091A20144
:1010E000262F30E0280F311D2F3F310524F4680FE3
:1010F0006093A20108958FEF8093A20108958091DB
:101100000601262F30E0280F311D2F3F310524F432
:10111000680F6093060108958FEF8093060108958C
:1011200080910501262F30E0280F311D2F3F31051A
:1011300024F4680F6093050108958FEF80930501F3
:10114000089580910401262F30E0280F311D2F3F94
:10115000310524F4680F6093040108958FEF8093A4
:101160000401089580910201262F30E0280F311DDF
:101170002F3F310524F4680F6093020108958FEF2B
:1011800080930201089580910101262F30E0280FFD
:10119000311D2F3F310524F4680F6093010108953C
:1011A0008FEF809301010895833011F128F481308D
:1011B00049F0823091F00895853081F120F1863038
:1011C000C1F108958091A201681720F4861B8093D5
:1011D000A20108951092A201089580910601681756
:1011E00020F4861B8093060108951092060108954D
:1011F00080910501681720F4861B809305010895EE
:1012000010920501089580910401681720F4861B4F
:1012100080930401089510920401089580910201C1
:10122000681720F4861B8093020108951092020132
:10123000089580910101681720F4861B80930101B5
:1012400008951092010108950F931F9341E050E01B
:1012500060E070E08A019B0104C0000F111F221F93
:10126000331F8A95D2F7C901B8010E941A1A1F913B
:101270000F910C94EA158B3109F468C058F58B3046
:1012800009F486C078F4863009F445C020F485302E
:1012900009F44BC07FC0873009F44AC0883009F494
:1012A00077C078C0803109F464C068F48E3009F0EA
:1012B00071C080914A0282FB222720F991E0922797
:1012C00090FB82F94CC0863109F462C0893109F47F
:1012D0005FC060C08A32E1F060F4873209F455C023
:1012E00028F48E3108F456C08D5150C08932E9F08F
:1012F00051C0833450F48A3308F045C0853309F473
:1013000044C0883309F444C045C08334F1F142C07D
:101310000E947C1D3DC080914A02817F8E7F809318
:101320004A0281E08093A00108950E94F30330C037
:1013300080914A02982F9095917090FB80F980934C
:101340004A02911125C0897F877F10C080914A028F
:1013500081FB222720F991E0922790FB81F980936D
:101360004A029923A9F080914A02816080934A023F
:101370000FC080914A0283FB222720F991E0922737
:1013800090FB83F9ECCF895301C080E00E942409CF
:1013900081E0089580E0089580E008950C94CC09E0
:1013A0008E518A3030F4E82FF0E0E45AFE4F80810D
:1013B000089580E00895CF93C82F8091A0018130D7
:1013C00051F018F0823099F17BC00E94131C8232D8
:1013D00009F078C004C00E94131C823261F48C2F83
:1013E0000E94CE09811104C08C2F0E943B091DC0B0
:1013F00081E090E01AC08C2F0E94CC09811114C0AA
:10140000C43179F048F4CB3079F0C03109F05EC0D6
:1014100082E08093A00108C0C93219F0C83321F0DE
:1014200055C01092A00152C081E0817051C0C932F4
:1014300079F108F5C43161F1A0F4C73009F044C076
:101440001092A20184E180930601C09305018CE310
:101450008093040188E08093020188E28093010177
:1014600033C082EE8C0F863078F58C2F0E94D00925
:1014700080939F0129C0CE34E9F020F4CB3421F5CC
:101480006AE013C0C13579F0C235F1F461E00DC0F6
:1014900080919F01882319F010929F0115C081E06F
:1014A0008093A00115C061E006C080919F010E9459
:1014B0005E080AC06AE080919F010E94D40804C0BF
:1014C0001092A00180E004C081E002C080E0ADCFB6
:1014D000CF9108958091A90180FF0BC06091050113
:1014E00085E0689FB001112475956795759567959E
:1014F0002BC081FF09C06091050185E0689FB001A4
:1015000011247595679520C082FF07C06091050181
:1015100085E0689FB001112417C09091A80199231C
:10152000D1F060910401961788F72091050185E0BC
:10153000289F90011124929FA001939F500D112488
:1015400070E0CA010E94C9256038710540F4611538
:10155000710519F406C065E070E0862F08958FE7E5
:10156000089581E008958091A90180FF08C06091ED
:10157000020170E0759567957595679521C081FFAB
:1015800006C06091020170E07595679519C082FFF1
:1015900004C06091020170E010C09091A7019923EE
:1015A00099F0609101019617A0F780910201899F3F
:1015B000C001112470E00E94C9256038710540F413
:1015C0006115710519F406C061E070E0862F089579
:1015D0008FE7089581E008958D3E21F40E946A0A04
:1015E000819504C08E3E29F40E946A0A8093AD0161
:1015F00008958F3E21F40E946A0A819504C0803FBD
:1016000029F40E946A0A8093AC010895893F19F475
:101610000E94B30A05C08A3F31F40E94B30A819543
:101620008093AE0108958B3F21F40E94B30A819507
:1016300004C08C3F29F40E94B30A8093AF0108953F
:101640009FE0980F983078F421E030E0A90102C0C3
:10165000440F551F9A95E2F7CA019091AB01892B6F
:101660008093AB0108958D3F21F48091A9018160A1
:101670000BC08E3F21F48091A901826005C08F3F8D
:1016800029F48091A90184608093A90108958D3E79
:1016900039F49091AD0197FF35C01092AD0159C05A
:1016A0008E3E29F49091AD011916BCF32BC0909198
:1016B000AC018F3E29F497FF25C01092AC0149C0C0
:1016C000803F19F41916CCF31DC09091AE01893FEB
:1016D00029F41916BCF41092AE013BC08A3F19F4EC
:1016E00097FF10C0F8CF8B3F39F49091AF0197FF6F
:1016F00009C01092AF012DC08C3F21F49091AF0131
:101700001916BCF39FE0980F983080F421E030E088
:10171000A90102C0440F551F9A95E2F7CA018095AE
:101720009091AB0189238093AB0113C08D3F21F4CD
:101730008091A9018E7F0BC08E3F21F48091A90179
:101740008D7F05C08F3F29F48091A9018B7F809305
:10175000A9018091AC01811106C08091AD01811178
:1017600002C01092A8018091AE01811106C0809143
:10177000AF01811102C01092A70108950E94571E67
:101780002091AC01211104C02091AD01222321F050
:101790009093A6018093A5012091AE01211104C070
:1017A0002091AF01222321F09093A4018093A30103
:1017B0008AEA91E00C94D510EF92FF920F931F9359
:1017C000CF93DF9300D000D000D0CDB7DEB786E056
:1017D000EAEAF1E0DE01119601900D928A95E1F7B7
:1017E000E090AC01F090AD010091AE011091AF011D
:1017F0001092AC011092AD011092AE011092AF01A7
:10180000E11003C0FF2009F45DC08091A501909113
:10181000A6010E946F1EAC019091A801992339F096
:101820002091060130E02417350758F04BC0209175
:10183000A2018AE0289F900111242417350718F08F
:1018400041C09F3F19F09F5F9093A801EE2061F087
:101850000E946A0A1E1414F09FEF01C091E0989F45
:10186000902D11249093AC01FF2061F00E946A0A30
:101870001F1414F09FEF01C091E0989F902D112448
:101880009093AD013091AC013323E1F02091AD0193
:101890002223C1F045EB3403C0011124992319F030
:1018A0009093AC0103C081E08093AC0135EB23033E
:1018B000C0011124992319F09093AD0103C081E078
:1018C0008093AD01011103C0112309F45DC0809123
:1018D000A3019091A4010E946F1EAC019091A701F9
:1018E000992339F02091030130E02417350758F08F
:1018F0004BC02091A1018AE0289F90011124241758
:10190000350718F041C09F3F19F09F5F9093A701E2
:10191000002361F00E94B30A101614F09FEF01C07B
:1019200091E0989F902D11249093AE01112361F0C6
:101930000E94B30A111614F09FEF01C091E0989F26
:10194000902D11249093AF013091AE013323E1F03B
:101950002091AF012223C1F045EB3403C0011124D3
:10196000992319F09093AE0103C081E08093AE01FA
:1019700035EB2303C0011124992319F09093AF0193
:1019800003C081E08093AF018091AC0181110BC055
:101990008091AD01811107C08091AE01811103C01A
:1019A0008091AF0181110E94BE0BEB82FC820D83FE
:1019B0001E8386E0FE013196AAEAB1E001900D9205
:1019C0008A95E1F726960FB6F894DEBF0FBECDBF1D
:1019D000DF91CF911F910F91FF90EF900895EAEA68
:1019E000F1E086E0DF011D928A95E9F71092A801E7
:1019F0001092A7011092A90108950F931F93CF93FE
:101A0000DF93C42FD22FFC0182818823C9F0409339
:101A1000B2010E94571E9093B1018093B00180E201
:101A20008C0F883008F057C0C77081E001C0880F64
:101A3000CA95EAF7DF91CF911F910F910C945D1336
:101A40008091B201481330C08091B0019091B101F2
:101A50000E946F1E883C910538F510E21D0FCD17CE
:101A6000B9F080E28C0F883040F4C77081E001C08B
:101A7000880FCA95EAF70E946413183028F581E0B0
:101A80009D2F977001C0880F9A95EAF70E945D1309
:101A9000802F0E9454131830F0F4D77081E001C0F9
:101AA000880FDA95EAF70AC080E28C0F883098F444
:101AB000C77081E001C0880FCA95EAF7DF91CF9126
:101AC0001F910F910C946413802FDF91CF911F9180
:101AD0000F910C945413DF91CF911F910F910895A2
:101AE0000F939C01CB01243F4CE5340731F188F47E
:101AF000293DFCE53F07D9F02A3D4CE5340779F153
:101B0000283D3C45A9F506E221EE41EE68ED7CE575
:101B10002BC0263FFCE53F07E1F0A8F0273F3C45FE
:101B200039F507E225EE46EE67EF7CE51DC007E2DA
:101B300025EE45EE69ED7CE517C006E221EE40EEAC
:101B400064EF7CE511C007E225EE44EE65EF7CE52D
:101B50000BC006E221EE42EE66EF7CE505C008E22E
:101B600021E045EE6AED7CE50E94FD0C80E008C0B6
:101B7000FC018281882319F01092B20101C081E03A
:101B80000F910895CF93DF93EC01FB0182818823AD
:101B900009F41FC1C230FCE5DF0708F41BC1C631E0
:101BA0009CE5D90738F09E012B5F3C452930310573
:101BB00008F010C10E94E71C9093570280935602D0
:101BC000C031ECE5DE0709F4C3C008F041C0C830FD
:101BD0008CE5D80709F49AC0F0F4C430ECE5DE07D0
:101BE00009F487C068F4C2308CE5D80709F477C0DF
:101BF000C330DC4509F0E3C080915602826076C0B4
:101C0000C630ECE5DE0709F46EC008F07BC08091B9
:101C1000560288606BC0CC308CE5D80709F485C0CB
:101C200068F4CA30ECE5DE0709F474C008F079C046
:101C30000E94EA1580915602806858C0CE308CE52B
:101C4000D80709F476C008F07FC0809156028BC097
:101C5000CC3FECE5DE0709F44FC018F5C3318CE545
:101C6000D80709F47DC078F4C131ECE5DE0709F44A
:101C700073C0C231DC4509F0A2C00E94EA15809110
:101C800056028F7733C0C5318CE5D80709F472C08E
:101C900008F486C0CB3FDC4509F091C08091570223
:101CA0003EC0C115FDE5DF0709F45FC058F4CE3F23
:101CB0009CE5D90709F444C008F43FC0809157025D
:101CC00082602DC0C230FDE5DF0709F475C008F45D
:101CD0005DC0C330DD4509F072C080E06EC0809108
:101CE0005602816003C08091560280618093560243
:101CF00066C08091560211C0809157028260809325
:101D000057025DC0809156028062F0CF80915602EA
:101D10008064ECCF8091560288608460E7CF816058
:101D2000EECF809156028E7FE1CF809156028D7F5B
:101D3000DDCF80915602877FD9CF8091570218C09E
:101D4000809157028D7FDBCF809156028F7ECECF60
:101D5000809156028F7DCACF809156028F7BC6CF6D
:101D600080915602877F8B7FC1CF809157028D7FF4
:101D70008E7FC5CF8091560282FB222720F991E009
:101D8000922790FB82F990FB83F9B0CF80915702A4
:101D9000982F909591708E7F892B90FB81F9AFCF12
:101DA0000E94EA158091560287FB222720F991E0D4
:101DB000922790FB87F99ACF81E00E947E1D809147
:101DC0005602909157020E94F81C0E94EA1580E08A
:101DD00001C081E0DF91CF910895CF93DF938631E9
:101DE0009C4541F5EB010E94131C982F8A8120919C
:101DF0000F0130911001882379F09A7A81E009F47B
:101E000080E08093B301911102C069E201C065E3F3
:101E1000C9010E94C51D0AC08091B301811102C091
:101E200069E201C065E3C9010E94C71D0E94651CEB
:101E300080E001C081E0DF91CF91089561E070E022
:101E400087E091E00C94CD0F61E070E087E091E0D5
:101E50000C94D40FCF93DF93D62FC72F0E946C1012
:101E6000892BF1F4ED2FFC2F80E090E0DC01A754EA
:101E7000BE4F2C912193019685309105B9F70E94B0
:101E8000CA1EDC01CB010296A11DB11D8093B501D4
:101E90009093B601A093B701B093B80181E001C05F
:101EA00080E0DF91CF910895CF93DF93D62FC72F96
:101EB0006091B5017091B6018091B7019091B80120
:101EC0000E94AD1EED2FFC2F80E090E02191DC01FF
:101ED000A754BE4F2C93019685309105B9F7DF9139
:101EE000CF9108958EE1489B02C08150E1F7489B55
:101EF000FECF0895589880E28A95F1F7589A089590
:101F0000FC012AE02A95F1F728E090E080E031E03A
:101F100040E14A95F1F7880F489B02C08160932702
:101F200000C0000040E14A95F1F7215089F720E117
:101F30002A95F1F729B100C0000030E13A95F1F798
:101F4000217092272081920F90830895EF92FF9243
:101F50000F931F93CF93DF931F92CDB7DEB71982F4
:101F60008C017C01E60EF11C0E151F0551F00E943C
:101F7000720FCE0101960E94800FF80181938F01AC
:101F8000F3CF81E09981911180E00F90DF91CF91A3
:101F90001F910F91FF90EF9008959093BF01809350
:101FA000BE01509A589A08959093BF018093BE0144
:101FB0005098589AE89AE9E6F0E080818C7F808317
:101FC0000895615091E001C0990F6A95EAF720E009
:101FD00031E0992361F0492F482319F0589A2327BB
:101FE00001C0589840E24A95F1F79695F2CF222326
:101FF00011F0589A01C0589880E28A95F1F75898E4
:102000000895FF920F931F93CF93DF93EC018C0100
:10201000060F111DC017D10741F0F9900E947A0FE9
:1020200068E08F2D0E94E10FF5CFDF91CF911F91D6
:102030000F91FF9008951F920F920FB60F921124E7
:102040002F933F934F935F936F937F938F939F93C0
:10205000AF93BF93CF93DF93EF93FF935898509A2A
:10206000C091BE01D091BF016D81662321F08E81A8
:102070009F810E9401100E947A0F80E18A95F1F7FA
:1020800058985098589A80E18A95F1F76A816623AA
:1020900051F08B819C810E94A60FE881F98181110A
:1020A00004C082E003C0E881F98188E080830E9457
:1020B000720FFF91EF91DF91CF91BF91AF919F91FF
:1020C0008F917F916F915F914F913F912F910F90E1
:1020D0000FBE0F901F901895CF93DF93C091BE0154
:1020E000D091BF01F894509A589885E08A95F1F7FD
:1020F00000005098589A80E28A95F1F7489B0AC0F0
:10210000509A589AE881F98181E08083789481E03F
:1021100090E02CC06D81662381F08E819F810E94AA
:10212000A60F81110AC0509A589AE881F98182E07D
:102130008083789482E090E019C00E94720F80E260
:102140008A95F1F75898509A80E18A95F1F76A815B
:10215000662321F08B819C810E9401100E947A0FDE
:10216000E881F9811082789480E090E0DF91CF914E
:1021700008959093C5018093C4010895E091C4012E
:10218000F091C501309721F00190F081E02D099484
:1021900080E00895E091C401F091C501309721F0ED
:1021A0000280F381E02D09940895E091C401F0913B
:1021B000C501309739F022E0DC012C930480F581D1
:1021C000E02D099408952091C2013091C301281790
:1021D000390771F09093C3018093C201E091C4016B
:1021E000F091C501309721F00680F781E02D099428
:1021F00008952091C0013091C1012817390771F06D
:102200009093C1018093C001E091C401F091C50198
:10221000309721F00084F185E02D099408950E9403
:10222000631E6093D5017093D6018093D70190937C
:10223000D8016093D1017093D2018093D301909320
:10224000D401089585B7806885BF85B7806885BF4C
:1022500008950C94330808950C942B110C942B11B1
:102260000C942E110C942B110C9432110C942B11F4
:102270000E94221182ED9CE10E94F61E0E943611FE
:102280000C9434110E942C110C942B110E944E1EA0
:102290000E94A41E0E94C7060C9430119F92AF9218
:1022A000BF92CF92DF92EF92FF920F931F93CF9343
:1022B000DF93CDB7DEB72A970FB6F894DEBF0FBE17
:1022C000CDBF0E94710781110E940F1187ECA82ECB
:1022D00081E0B82E00E010E0902E802F0E9497063B
:1022E000D82EF501C1905F01C826B1F40F5F1F4FD2
:1022F0000A30110589F78FEF89838A831B820E9438
:10230000571E8160782F9D838C8349815A816B8110
:102310008D810E94EC112FC080914A0281FD0E94A4
:102320009D06E12CFF24F3948C2D8F21F1F00E9467
:102330002911882399F0EE829F82DF2081E009F441
:1023400080E088870E94571E8160782F9A8789874E
:102350004E815F8168858A850E94EC11F801E953FE
:10236000FE4F8081F826F08206C0E394FF0CF5E072
:10237000EF12DACFBBCF0E94DC0B0E94BE1090910F
:10238000C6018917B9F00E94BE108093C6012A9633
:102390000FB6F894DEBF0FBECDBFDF91CF911F9176
:1023A0000F91FF90EF90DF90CF90BF90AF909F90F4
:1023B0000C945B042A960FB6F894DEBF0FBECDBF17
:1023C000DF91CF911F910F91FF90EF90DF90CF9011
:1023D000BF90AF909F900895DF92EF92FF920F937E
:1023E0001F93CF93DF93CDB7DEB72B970FB6F8943B
:1023F000DEBF0FBECDBFF42E052F162FE72ED82E31
:1024000061110E94331CFE01319686E0DF011D92AE
:102410008A95E9F77E2D4F2D502F612F8D2D9E81AE
:102420000E94DD182B960FB6F894DEBF0FBECDBF0D
:10243000DF91CF911F910F91FF90EF90DF90089562
:10244000FC01808191810E94B31B0895CF93882362
:1024500009F4A9C0C82F8238C1F40E94BE1081FDC2
:10246000A2C069E380910F01909110010E94C51DE7
:102470000E94651C2FEF81EE94E021508040904037
:10248000E1F700C0000069E319C0833801F50E943C
:10249000BE1080FD88C063E580910F01909110010E
:1024A0000E94C51D0E94651C2FEF81EE94E0215013
:1024B00080409040E1F700C0000063E580910F018B
:1024C000909110010E94C71DCF910C94651C843817
:1024D000C1F40E94BE1082FD66C067E480910F01C6
:1024E000909110010E94C51D0E94651C2FEF81EE86
:1024F00094E0215080409040E1F700C0000067E484
:10250000DDCF8CEF8C0F813AF8F48C2F0E94DB0921
:10251000811149C06C2F80910F01909110010E9490
:102520008F1D882349F06C2F80910F01909110012D
:102530000E94C71D0E94651C6C2F80910F01909115
:1025400010010E94C51DC0CF80E28C0F883048F476
:10255000C77081E001C0880FCA95EAF70E94161C77
:10256000B3CFEBE5EC0FE33040F4F0E0EC56FE4F78
:10257000808190E0CF910C94E310E8E5EC0FE73117
:1025800050F4F0E0EE0FFF1FEA59FE4F8081918179
:10259000CF910C94F910CD3E30F08C2F0E94EC0AB4
:1025A000CF910C94BE0BCF910895882309F464C099
:1025B000823879F40E94BE1081FF5EC069E3809189
:1025C0000F01909110010E94C51D0E94651C69E3D6
:1025D00010C08338B1F40E94BE1080FF4DC063E587
:1025E00080910F01909110010E94C51D0E94651CF1
:1025F00063E580910F01909110010E94C71D0C941A
:10260000651C843879F40E94BE1082FF35C067E4EF
:1026100080910F01909110010E94C51D0E94651CC0
:1026200067E4E7CF9CEF980F913A10F4682FE1CF61
:1026300090E2980F983050F4877091E001C0990FA4
:102640008A95EAF7892F0E941C1CD9CF9BE5980F29
:10265000933020F480E090E00C94E31098E5980F1C
:10266000973120F480E090E00C94F9108D3E20F03A
:102670000E94470B0C94BE0B08951F93CF93DF93DA
:10268000182FEB010E942612209741F08FE99FE05E
:102690000197F1F700C000002197F6CF812FDF915D
:1026A000CF911F910C94D512893319F060E070E03E
:1026B00002C060E570E00C943D13882321F00E9475
:1026C000161C0C94651C0895882321F00E941C1C84
:1026D0000C94651C0895CF92DF92EF92FF920F93B6
:1026E0001F93CF93DF937C01062FC72FFC01D2816C
:1026F000158112951F700E94EB1B882399F0DD2332
:1027000089F08C2F807F803421F080E2800F883028
:1027100048F082E00E94B51C0E94EB1B91E0D82E8D
:10272000D92601C0D12CCC2EC2948FE0C8228C2D8A
:1027300090E0FC01EA5AFF4F0C94DD258C2F807F3E
:10274000CF70882311F0C295C07FDD2399F0CC2390
:1027500009F48DC180E2800F883010F0011104C0AF
:102760008C2F0E94161C03C08C2F0E94261C0E94D6
:10277000651C7DC1802F0E94D512CC2309F49CC119
:1027800080E2800F883010F0011104C08C2F0E946D
:102790001C1C03C08C2F0E942C1C0E94651C8CC129
:1027A0008C2F807FCF70803211F0C295C07F0023C4
:1027B00019F00130C9F022C0DD2371F0112341F07E
:1027C000113031F40E94461C8C2B0E944E1C74C1A7
:1027D0000E94461C8C2B1DC0112319F0113009F4E6
:1027E0006BC10E945B1C25C0DD2321F0163008F070
:1027F00063C10EC0153008F05FC11BC0DD2361F05E
:10280000112331F0F701858180FF31C18F708583FD
:102810008C2F0E945D1350C1112359F0093309F028
:1028200037C1FFEF27EE83E0F15020408040E1F711
:102830002DC18C2F0E9464133FC18C2F86958695E5
:10284000837019F0813061F037C1DD2321F0802FD2
:102850009C2F937002C080E090E00E94E31034C18E
:10286000DD2321F0802F9C2F937002C080E090E048
:102870000E94F91029C1802FDD2319F00E94EC0A73
:1028800002C00E94470B0E94BE0B1EC18C2F83709A
:1028900009F045C0D11114C1402F429546954770AB
:1028A000440F440F602F6F70862F90E0A0E0B0E0DF
:1028B000042E04C0880F991FAA1FBB1F0A94D2F7C9
:1028C00004FF10C00FE010E020E030E004C0000F73
:1028D000111F221F331F4A95D2F70095109520959E
:1028E000309503C000E010E09801C695C695C3700E
:1028F000BC01CD01602B712B822B932BC23049F090
:1029000058F4C13019F00E942E1ADAC00E941C1A25
:10291000D7C00E94401AD4C00E941A1AD1C0DD2329
:1029200019F08C2F817001C08695882309F4C8C0E6
:10293000402F429546954770440F440F602F6F70AB
:10294000862F90E0A0E0B0E0042E04C0880F991F0D
:10295000AA1FBB1F0A94D2F704FF10C00FE010E0BB
:1029600020E030E004C0000F111F221F331F4A95E2
:10297000D2F7009510952095309503C000E010E047
:102980009801C695C695C370BC01CD01602B712B13
:10299000822B932BC23049F058F4C13019F00E94B9
:1029A000F31A8EC00E94E11A8BC00E94051B88C0DA
:1029B0000E94541A85C0CF70DD2339F08C2F0E94FD
:1029C0007A1A802F0E945D137BC0802F0E946413AF
:1029D0008C2F0E949B1A74C0023F01F128F4003F23
:1029E00041F0013FA1F03FC0033FF9F0043F39F14E
:1029F0003AC0DD2341F0153008F05EC08C2F8F7196
:102A00000E94C01A59C0163008F056C0F7CFDD2317
:102A100039F08C2F8F710E947A1A4EC0DD23C9F3D2
:102A20008C2F8F710E949B1A47C0DD2329F08C2FB9
:102A30008F710E94651A40C00E94601A3DC0DD235C
:102A400049F0CF718C2F0E947A1A63E08C2F0E947C
:102A50009A1C32C081E00E94B51C123068F182E0FD
:102A60000E94B51C29C0DD2331F0112391F2802F83
:102A70000E94261221C0112399F2093349F49FEFD5
:102A8000E7EEF3E09150E040F040E1F700C00000D5
:102A9000802F0E94D51210C04C2F4F70602FC7019D
:102AA0000E9464040E948B190FC04C2F4F70602F3E
:102AB000C7010E94670408C088EF8C0D843020F4A1
:102AC0000E94BE100E945B04DD20C9F00E94E71B3B
:102AD00080FD15C0F70112820E94E11B0E947A1A44
:102AE000C7010E94A0150E94E11BDF91CF911F91A9
:102AF0000F91FF90EF90DF90CF900C949B1ADF9195
:102B0000CF911F910F91FF90EF90DF90CF9008959C
:102B10000F931F93CF93DF93EC01688179818A81B2
:102B20000E94BE1B8C010E94171B0E94081AB8014C
:102B3000CE010E946B13DF91CF911F910F910895E9
:102B4000CF93DF93EC01988189812B813C81232BEA
:102B500031F08F3F31F481E09F3F19F403C081E0F1
:102B600001C080E080FD19C0CE010E9402048111E5
:102B70000CC00E94EB1B882381F08A81882369F0B6
:102B800082E0DF91CF910C94B51CCE010E94881594
:102B9000CE01DF91CF910C94E103DF91CF910895A5
:102BA00080E090E00E94E31080E090E00E94F91045
:102BB0000E94331C0E94431C0E94651C0E94EF0C63
:102BC0000C94BE0B80910F01909110010E94C91DC1
:102BD0000C94D0150E94231C0C94E215E92FE29569
:102BE000EF704E2F50E0FA013297EE30F105B0F45D
:102BF000EA59FF4F0C94DD25803F91F018F4883E90
:102C000068F40EC0843F51F40BC0883E48F0813F09
:102C100029F406C093FB882780F9089580E0089581
:102C200081E008950E94B31B0E94EE150895CF9392
:102C3000DF9300D000D01F92CDB7DEB70F900F907A
:102C40000F900F900F90DF91CF910895CF93DF9366
:102C500000D000D000D0CDB7DEB726960FB6F894DE
:102C6000DEBF0FBECDBFDF91CF9108951F93CF93ED
:102C7000DF93C091DA0116E08091DB01C81799F06B
:102C8000D0E01C9FF0011D9FF00D1124E452FE4F77
:102C90004081518162817381848195810E942616D1
:102CA0002196C770E9CFDF91CF911F910895409190
:102CB0000C0250910D0260910E0270910F028091F2
:102CC0001002909111020C9426162091DA01909135
:102CD000DB0156E02917A9F030E0529FF001539F25
:102CE000F00D1124E452FE4F7181761306C07081FD
:102CF000781303C07281741306C02F5F3F4F277093
:102D0000E9CF80E0089581E008950F931F93CF935A
:102D1000DF938091110282958F7009F05DC08091E0
:102D20000E02882309F458C08091DA011091DB016A
:102D300060910C0270910D02C0910F02D0911002AF
:102D400091E06F3F09F090E0292F06E0811709F428
:102D500043C0209721F07F3F21F030E003C031E0F5
:102D600001C0322F90E030FD34C0089FF001099F70
:102D7000F00D1124DF01A452BE4F11963C91119722
:102D8000371327C03C91361324C012963C911297FA
:102D900031111FC013964D915C9114974C1B5D0B24
:102DA000483C5105B0F4809111028F70806180938E
:102DB0001102EF51FE4F80818F70806180838CE023
:102DC00092E00E94A015DF91CF911F910F910C947A
:102DD000361601968770BACFDF91CF911F910F9170
:102DE00008958F929F92AF92BF92CF92DF92EF920F
:102DF000FF920F931F93CF93DF93CDB7DEB7619709
:102E00000FB6F894DEBF0FBECDBF8C0185E0F80190
:102E1000DE011D9601900D928A95E1F7D801DC90B4
:102E20001196EC9011971296CC9090910C022091F3
:102E30000D0240910F02509110024115510531F0E1
:102E40002F3F31F481E09F3F19F403C081E001C0BE
:102E500080E080FD81C1F801838094808CE0A82E01
:102E600082E0B82EF0900E02B401641B750BFF20B7
:102E700009F418C180911102382F307F683C710528
:102E800008F0D1C031118AC0E21214C0D91212C0A8
:102E9000FC2CC1100FC08F708061809311020E94C2
:102EA0005716C5010E94A01580911102D8011596F0
:102EB0008C936FC18114910439F0BFEFEB1206C0FF
:102EC00081E0DB1203C003C081E001C080E080FD2F
:102ED00003C081E08C2502C080E090E080FF10C03C
:102EE0004C2D6E2D8D2D0E946516882349F08CE0A7
:102EF00092E00E94A015ECE0F2E086E0DF01A4C0C1
:102F0000892839F0BFEFEB1206C081E0DB1203C065
:102F100003C081E001C080E080FD03C081E08C251A
:102F200002C080E090E0E82FE170BE2E80FF2CC050
:102F30004C2D6E2D8D2D0E946516F82E811124C00A
:102F4000DD86EE868D859E850E94B31B292F2295F6
:102F50002F70223018F0243090F405C09F7059F083
:102F6000811109C016C19F7031F0D80115969C914E
:102F7000907F09F40EC1805E883008F40AC1C80150
:102F80000E94A015FB2C05C1FC2CCC2009F401C12A
:102F9000809111028160809311025BC0E21206C031
:102FA000D91204C0C11002C0F801A0C0DD86EE86AF
:102FB0008D859E850E941216882379F1CC2069F1B7
:102FC00020911102822F82958F7090E0029774F009
:102FD00080910C0290910D0298878F8319869B86B1
:102FE0008A862C87CE0107960E94A01586E0F801FC
:102FF000ACE0B2E001900D928A95E1F70E9485164F
:103000000E9457160DC0E21631F1DD86EE868D85E1
:103010009E850E94121681112DC0C8010E94A01524
:10302000FF24F394B6C03111EECF782D998A888AA7
:103030004D2D5E2D6C2D89890E9417168CE092E033
:103040000E94A01586E0D5011D928A95E9F70E949D
:103050005716F12C9EC0D912D8CFC110D6CFF80187
:103060008583C8010E94A01586E0D5011D928A952E
:10307000E9F78FC0CC2089F220911102822F82952E
:103080008F7090E002970CF4B1CF80910C02909178
:103090000D029A8389831B829D828C822E83CE01AE
:1030A0000196A2CF683C710508F047C0FC2CCC20EB
:1030B00009F4B3CFE21230C0D9122EC02091110210
:1030C00020FD21C0822F82958F70482F50E041153E
:1030D0005105C9F0F80125834F30510541F08F5F4C
:1030E000982F9295907F822F8F70892B8583C801AE
:1030F0000E94A01586E0F801ACE0B2E001900D92CC
:103100008A95E1F744C086E0F801ACE0B2E00190B6
:103110000D928A95E1F73DC0DD86EE868D859E8510
:103120000E941216811162CF8091110281608093FA
:103130001102C8010E94A0152CC0782D998A888A96
:103140004D2D5E2D6C2D89890E94171686E0D501C4
:103150001D928A95E9F71BC0CC2009F45ECFDD866D
:10316000EE868D859E850E941216F82E882309F41E
:1031700054CF86E0F801ACE0B2E001900D928A9560
:10318000E1F78CE092E00E9420120E9485160E94D6
:1031900057168F2D61960FB6F894DEBF0FBECDBFC8
:1031A000DF91CF911F910F91FF90EF90DF90CF9023
:1031B000BF90AF909F908F9008951F93CF93DF9310
:1031C000CDB7DEB72C970FB6F894DEBF0FBECDBFDC
:1031D0004F83588769877A878B879C87CE010796AC
:1031E0000E94F1168823D1F09F8188852A853B852E
:1031F000232B31F08F3F31F481E09F3F19F403C05E
:1032000081E001C080E080FD47C04F81588569851D
:103210007A858B859C850E9426163EC086E0FE013D
:103220003796DE01119601900D928A95E1F7FF81A4
:10323000E8856A857B856115710531F0EF3F31F4D2
:1032400081E0FF3F19F403C081E001C080E080FD10
:1032500023C02091DB0130E0C901019687709927D6
:103260004091DA0150E084179507F1F1F983EA8380
:103270007D836C8396E0929FD001939FB00D1124C3
:10328000A452BE4FFE01319601900D929A95E1F73E
:103290008093DB010E94361616E08091DA0190914E
:1032A000DB01891771F1189FC001112484529E4FD0
:1032B0000E94F116882329F1E091DA011E9FF001A6
:1032C0001124E452FE4F40815181628173818481D7
:1032D00095810E9426168091DA0190E00196877010
:1032E00099278093DA01D9CF0E94EA151092DB0169
:1032F0001092DA01ECE0F2E086E0DF011D928A959F
:10330000E9F72C960FB6F894DEBF0FBECDBFDF9164
:10331000CF911F910895EF92FF920F931F93CF9338
:10332000DF938C01892B09F46CC0F12CEE24E3941B
:10333000E8012196F8018491843740F4843008F044
:1033400051C0813081F0823019F15BC0853709F4BA
:1033500044C0A8F19CE7980F903708F052C08F77CF
:103360000E94D51241C00E5F1F4FFE01849190E272
:10337000980F983050F48770FE2D01C0FF0F8A958A
:10338000EAF78F2F0E94361C14C00E9426122DC00F
:103390000E5F1F4FFE01849190E2980F983060F409
:1033A0008770FE2D01C0FF0F8A95EAF78F2F0E94CC
:1033B0003C1C0E94651C19C00E94D51216C00E5FED
:1033C0001F4FFE01C491CC2381F08FE99FE001974C
:1033D000F1F700C00000C150F6CF0E5F1F4FFE0195
:1033E000F49003C00E9426128E018F2D882309F4C9
:1033F0009FCFEFE9FFE03197F1F700C00000815067
:10340000F5CFDF91CF911F910F91FF90EF9008952D
:10341000089508950C94091A0C940A1A0E940C1A23
:103420006093390270933A0280933B0290933C027E
:103430000C94D0150C940E1A0F931F93009139021F
:1034400010913A0220913B0230913C02602B712B8B
:10345000822B932B1F910F910C940E1A0F931F9395
:103460000091390210913A0220913B0230913C02C6
:1034700060237123822393231F910F910C940E1AC2
:103480000F931F930091390210913A0220913B0251
:1034900030913C0260277127822793271F910F915B
:1034A0000C940E1A0C94091A0E94521A6093350259
:1034B0007093360280933702909338020C94D015A3
:1034C00060E070E0CB010C94541A0F931F9341E01D
:1034D00050E060E070E08A019B0104C0000F111F02
:1034E000221F331F8A95D2F7C901B8011F910F918E
:1034F0000C94541A0F931F9341E050E060E070E089
:1035000004C0440F551F661F771F8A95D2F780911C
:10351000350290913602A0913702B09138028A01AB
:103520009B01082B192B2A2B3B2BC901B8011F919A
:103530000F910C94541A0F931F9341E050E060E0F8
:1035400070E004C0440F551F661F771F8A95D2F79D
:103550004095509560957095809135029091360216
:10356000A0913702B09138028A019B0108231923E8
:103570002A233B23C901B8011F910F910C94541ABF
:103580000F931F9341E050E060E070E004C0440FEF
:10359000551F661F771F8A95D2F78091350290914B
:1035A0003602A0913702B09138028A019B010827A8
:1035B00019272A273B27C901B8011F910F910C94A5
:1035C000541A0F931F9300913502109136022091E7
:1035D000370230913802602B712B822B932B1F9175
:1035E0000F910C94541A0F931F9300913502109170
:1035F00036022091370230913802602371238223F2
:1036000093231F910F910C94541A0F931F930091C1
:10361000350210913602209137023091380260272E
:103620007127822793271F910F910C94541A0895A4
:1036300024E0929F900D1124890FE82FE695E695DE
:10364000E695877051E001C0550F8A95EAF785E04D
:10365000E89FF0011124EE5EFD4F20E030E070E0C5
:103660004081CB01022E02C0969587950A94E2F71D
:103670008170819584278523842781932F5F3F4F15
:103680002530310569F7089524E0929F900D1124AB
:10369000890F682F669566956695982F977085E0D7
:1036A000689FB001112440E050E080E0FB01E40F8E
:1036B000F51FEE5EFD4F208130E0092E02C03695E9
:1036C00027950A94E2F721703327042E01C0220FB8
:1036D0000A94EAF7822B4F5F5F4F4530510531F76F
:1036E0000895BF92CF92DF92EF92FF920F931F93B4
:1036F000CF93DF938C01C0903502D0903602E090DA
:103700003702F09038028091390290913A02A091EC
:103710003B02B0913C02C82AD92AEA2AFB2ACFE10F
:10372000D0E0D701C6010C2E04C0B695A795979599
:1037300087950A94D2F780FD04C0219790F7B12CA9
:1037400007C0BC2EB8018C2F0E9483040197A9F3F7
:103750008B2DDF91CF911F910F91FF90EF90DF9014
:10376000CF90BF900895CF93DF93EC010E94711B1F
:10377000BE010E948304DF91CF9108951F93CF93E0
:10378000DF93EB019091D901992321F0CB010E94A5
:10379000B31B13C0882349F0CB010E94711B182F63
:1037A000682FCE010E94181B04C0CB010E94441B4D
:1037B000182FBE01812F0E948304DF91CF911F91AA
:1037C000089580913D028595859585950895809110
:1037D0003D028770089590913D02977081E009F451
:1037E00080E008959091570292FB222720F9281734
:1037F00051F080FB92F9909357028091560290917C
:1038000057020C94F81C08958091570282FB882778
:1038100080F991E089270C94F21B81E00C94F21B53
:1038200080E00C94F21B8091490208959091490226
:10383000892B8093490208958095909149028923AC
:103840008093490208951092490208959091480288
:10385000892B80934802089580959091480289238E
:10386000809348020895109248020895909147026B
:10387000892B809347020895809590914702892370
:1038800080934702089510924702089580913E0266
:10389000089508950C94491C0C944A1C9091570269
:1038A00092FD08C090913E02981721F080933E024D
:1038B0000C944C1C089580913E02882329F01092AC
:1038C0003E0280E00C944C1C0895E0910F01F091B1
:1038D0001001809149028083E0910F01F091100165
:1038E000908180914802892B8083E0910F01F091B3
:1038F0001001908180914702892B808380913E0244
:10390000882381F0E0910F01F09110019081892BC3
:10391000808380910F01909110010E94831D81117D
:103920000E945B1C80910F01909110010C94CA10B1
:103930000C94491C9091570292FD10C098E0899F09
:1039400090011124262B20933D020E947A1A809127
:103950003D028595859585950C94981C0C947A1A52
:1039600010923D0280E00C94981C20913D028095BD
:10397000822380933D02982F977041F430E0482FC6
:10398000082E000C550B2417350721F4909157028F
:1039900092FF07C08595859585950E949B1A0C948A
:1039A000B01C089580E0089580E090E00E94FF251B
:1039B00021E08A3E9E4F09F020E0822F089582E0A8
:1039C00090E00C94F72583E090E00C94F725CF93DA
:1039D00084E090E00E94F725C82F82E290E00E94E8
:1039E000F7252C2F30E0A901582BCA01CF9108955B
:1039F000CF93C92F682F84E090E00E9405266C2F9A
:103A000082E290E0CF910C940526AB01BC018FE0DF
:103A100090E00C941726AB01BC0183E190E00C947C
:103A2000172660E070E0CB010C940B1D60E070E0A5
:103A3000CB010E94051D0C94111D6AEE7EEF80E003
:103A400090E00E94232660E082E090E00E9405263C
:103A500060E083E090E00E94052610923902109207
:103A60003A0210923B0210923C0260E084E090E047
:103A70000E94052660E082E290E00E94052660E058
:103A800085E090E00E94052660E086E090E00E94DC
:103A900005266FEF87E090E00E94052640E050E0A9
:103AA000BA0188E090E00E94172660E08DE090E087
:103AB0000E94052640E050E0BA0188E190E00E94B3
:103AC000172660E087E190E00E94052640E050E084
:103AD000BA018CE190E00E94172660E070E080E27D
:103AE00090E00E94232640E050E0BA0188E190E097
:103AF0000E9417260C94161D0C941D1D682F8EE035
:103B000090E00C940526FC01329697E080E09150FD
:103B100029F021912223D9F38F5FF9CF08956623ED
:103B200049F0FC01329608962191621729F0E817B6
:103B3000F907D1F780E0089581E008959C01FC0128
:103B400032969FEF80E04191461789F09F3F19F42C
:103B5000411101C0982F8F5F8630A9F79F3F39F040
:103B6000F901E90FF11D97FDFA9562830895089513
:103B70009C012A5F3F4FFC014281461301C0128223
:103B8000019682179307B9F708950C949E1D0C9423
:103B9000B81D029626E0FC0111922A95E9F70895D6
:103BA00008950C94D01D0C94D01DCF930E94D31D6A
:103BB0000E9471070E94D11DC0E08C2F0E949706C1
:103BC000811104C0CF5FCA30C1F701C081E0CF913D
:103BD00008950C94D01D0C94E91D80917A028430D4
:103BE00049F10E94EB1D80E00E945B0410924B02A1
:103BF00020E488E190E00FB6F894A89580936000E7
:103C00000FBE2093600083B7817F846083BF83B73A
:103C1000816083BF7894889583B78E7F83BF0FB60A
:103C2000F894A8958091600088618093600010925C
:103C300060000FBE08950C94D01D0E94EA150E94EA
:103C4000BE100E945B040C941B1E1F920F920FB6B5
:103C50000F9211248F939F93AF93BF9380914B0248
:103C6000811113C080916E0290916F02A091700239
:103C7000B09171024196A11DB11D80936E02909387
:103C80006F02A0937002B0937102BF91AF919F91A8
:103C90008F910F900FBE0F901F90189582E084BDFA
:103CA00093E095BD9AEF97BD80936E0008952FB76E
:103CB000F89480916E0290916F02A0917002B09181
:103CC00071022FBF08952FB7F89460916E02709122
:103CD0006F0280917002909171022FBF08959C0134
:103CE0004FB7F89480916E0290916F02A09170028C
:103CF000B09171024FBF821B930B089578941F926D
:103D00000F920FB60F9211248F939F93AF93BF938F
:103D100080916E0290916F02A0917002B091710239
:103D20000196A11DB11D80936E0290936F02A09326
:103D30007002B0937102BF91AF919F918F910F90DC
:103D40000FBE0F901F90189510927202109273027E
:103D500010927402109275020895CF92DF92EF9242
:103D6000FF926B017C010E94330881110EC00E94FA
:103D7000631EC61AD70AE80AF90AC0927202D092E4
:103D80007302E0927402F0927502FF90EF90DF9060
:103D9000CF9008950F931F930E943308882321F03A
:103DA0001F910F910C94631E0E94631E009172027A
:103DB000109173022091740230917502600F711F8F
:103DC000821F931F1F910F91089587E797E79093A4
:103DD0000108809300089AE088E10FB6F894A8954E
:103DE000809360000FBE90936000FFCF9093990185
:103DF000809398010895809154020895CF93DF93A2
:103E000000D01F92CDB7DEB790917A02943019F5A9
:103E100089837B836A8382E08093E9008FEF9091AE
:103E2000E800815095FD06C095ED9A95F1F70000E8
:103E30008111F5CF8091E80085FF0DC040E050E092
:103E400063E070E0CE0101960E9419218091E800A4
:103E50008E778093E8000F900F900F90DF91CF91B5
:103E60000895BC0184E00C94FE1EBC0183E00C9418
:103E7000FE1E22E02093E9002FEF3091E800215050
:103E800035FD06C035ED3A95F1F700002111F5CF6B
:103E90002091E80025FF0BC040E050E066E070E0B4
:103EA0000E9419218091E8008E778093E8000895A0
:103EB000CF93DF9321E02093E9002FEF3091E800CA
:103EC000215035FD06C035ED3A95F1F7000021117E
:103ED000F5CF2091E80025FF14C0EC0140E050E050
:103EE00068E070E00E9419218091E8008E7780934D
:103EF000E80088E0FE01ACE4B2E001900D928A9502
:103F0000E1F7DF91CF91089580917902811109C085
:103F10000E94AA220E9407238091E200846080937D
:103F2000E200089510927902089508950895089581
:103F300042E061EC81E00E94232242E261EC82E0F7
:103F40000C94232280917C02833009F460C030F409
:103F5000813071F0823009F499C008958A3009F4F3
:103F600085C08B3009F46BC0893009F0A7C020C030
:103F700080917B02813A09F0A1C08091E800877F9F
:103F80008093E80080917F0290918002892B21F438
:103F900068E08CE492E003C060E080E090E070E0D4
:103FA0000E9464218091E8008B778093E800089557
:103FB00080917B02813209F081C080917F029091D3
:103FC0008002029708F07AC08091E800877F809392
:103FD000E8008091E80082FD05C080917A0281119D
:103FE000F8CF6CC02091F3008091F20090E0922B0A
:103FF000029729F48091F1008B7F813021F4809128
:10400000F100809354028091E8008B7753C0809137
:104010007B02813A09F052C080917F029091800228
:10402000892B09F04BC08091E800877F8093E800DE
:104030008091E80080FFFCCF80911B0136C0809109
:104040007B028132D9F580917F0290918002892B89
:10405000A9F58091E800877F8093E8000E945822AC
:1040600080917D0280931B010C94EA1580917B0264
:10407000813221F58091E800877F8093E8000E94DB
:10408000582280917E0280935502089580917B0290
:10409000813AA1F48091E800877F8093E8008091C5
:1040A000E80080FFFCCF809155028093F100809161
:1040B000E8008E778093E8000C945822089584B726
:1040C000877F84BF0FB6F894A895809160008861BF
:1040D00080936000109260000FBE90E080E80FB601
:1040E000F89480936100909361000FBE0E94381194
:1040F0000E94AA220E9407238091E200846080939C
:10410000E20078940E949C250E94461181E191E092
:104110000E94B91080917A028530A9F480917A02C8
:10412000853079F40E94ED1D809178028823B1F3E7
:104130000E94D51D882391F30E9403210E94EA1555
:10414000EDCF0E941D1E0E944E110E944211E2CF2F
:104150000C94AA20292F332723303105C9F060F4AD
:104160002130310581F02230310509F044C08BE364
:1041700090E02AE935E043C021323105E1F02232F6
:10418000310549F138C082E190E025ED35E037C0D6
:1041900099278130910549F028F0029761F5E8E40C
:1041A000F5E005C0E6E9F5E002C0E6E8F5E0849157
:1041B00090E09F0124C06115710541F061307105E7
:1041C000D1F489E090E025EC35E019C089E090E079
:1041D0002CEA35E014C06115710541F061307105BC
:1041E00051F48BE790E027EE35E009C080E490E0E1
:1041F00022E636E004C080E090E020E030E0FA0102
:1042000031832083089580E189BD82E189BD09B4AD
:1042100000FEFDCF8091D8008F7D8093D8008091E3
:10422000E00082608093E0008091E00081FDFCCF9F
:104230000895CF92DF92EF92FF920F931F93CF9347
:10424000DF93EC018B017A010E947722811133C048
:10425000E114F10439F0F70180819181081B190BF9
:10426000C80FD91FC12CD12C0115110519F180914E
:10427000E80085FD16C08091E8008E778093E80005
:10428000E114F10449F0F70180819181C80ED91E33
:10429000D182C08285E00FC00E947722882321F35B
:1042A0000AC089918093F10001501109FFEFCF1AE4
:1042B000DF0ADACF80E0DF91CF911F910F91FF905D
:1042C000EF90DF90CF90089520918102309182028B
:1042D0002617370748F06115710539F42091E80079
:1042E0002E772093E80001C0B901FC0120E06115A0
:1042F000710579F180917A028823F1F18530F1F12D
:104300008091E80083FD3CC08091E80082FD2EC0D2
:104310008091E80080FFEBCF2091F3008091F200C4
:1043200090E0922B6115710551F08830910538F4B9
:1043300021912093F100615071090196F3CF21E0A2
:10434000089709F020E08091E8008E778093E800DC
:10435000CECF2111CFCF0AC080917A02882361F09D
:10436000853061F08091E80083FD0AC08091E8000B
:1043700082FFF2CF80E0089582E0089583E00895FF
:1043800081E008952091810230918202261737073B
:1043900048F06115710539F42091E8002E772093DB
:1043A000E80001C0B901FC0120E06115710591F13F
:1043B00080917A02882309F440C0853009F43FC017
:1043C0008091E80083FD3DC08091E80082FD2FC010
:1043D0008091E80080FFE9CF2091F3008091F20006
:1043E00090E0922B6115710559F08830910540F4E9
:1043F00024912093F1003196615071090196F2CF1A
:1044000021E0089709F020E08091E8008E77809302
:10441000E800CBCF2111CCCF0AC080917A0288234B
:1044200061F0853061F08091E80083FD0AC08091E1
:10443000E80082FFF2CF80E0089582E0089583E0F3
:10444000089581E00895982F973068F59093E900DA
:10445000981739F07091EC002091ED005091F00028
:1044600003C0242F762F50E021FD02C09F5FECCFC8
:104470003091EB003E7F3093EB003091ED003D7FBB
:104480003093ED003091EB0031603093EB0070938E
:10449000EC002093ED005093F0002091EE0027FDFA
:1044A000E5CF80E008958F708093E90081E0089562
:1044B00080917B0287FF11C08091E80082FD05C0DA
:1044C00080917A028111F8CF11C08091E8008B773A
:1044D0000BC080917A02882349F08091E80080FF28
:1044E000F8CF8091E8008E778093E80008952091BE
:1044F000E4003091E50095E64091EC00842F817056
:1045000040FF23C08091E80080FD1DC080917A02A9
:10451000882399F0853099F08091EB0085FD11C0DA
:104520004091E4005091E5002417350729F391509C
:1045300011F09A01E1CF84E0089582E0089583E0CC
:10454000089581E0089580E008954091E80042FFD9
:10455000DDCF08950E9418230E942023E0EEF0E0B2
:10456000808181608083E8EDF0E080818F778083B7
:1045700019BCA7EDB0E08C918E7F8C9380818F7EEB
:1045800080831092790208950F931F93CF93DF9346
:104590000E9418230E942023C8EDD0E088818F77E5
:1045A000888388818068888388818F7D888319BC0F
:1045B00010927A021092760210927802109277028C
:1045C00000EE10E0F80180818B7F8083888181601C
:1045D000888342E060E080E00E942322E1EEF0E088
:1045E00080818E7F8083E2EEF0E080818160808335
:1045F000808188608083F80180818E7F80838881BC
:1046000080618883DF91CF911F910F910895E8ED2C
:10461000F0E080818F7E8083E7EDF0E08081816033
:10462000808384E082BF81E0809379020C94C4226D
:10463000E8EDF0E080818E7F80831092E2000895A3
:104640001092DA001092E10008951F920F920FB6B7
:104650000F9211242F933F934F935F936F937F9308
:104660008F939F93AF93BF93EF93FF938091E1005C
:1046700082FF0BC08091E20082FF07C08091E100C1
:104680008B7F8093E1000E949B258091DA0080FF60
:104690001FC08091D80080FF1BC08091DA008E7F00
:1046A0008093DA008091D90080FF0DC080E189BD40
:1046B00082E189BD09B400FEFDCF81E080937A02DA
:1046C0000E94841F05C019BC10927A020E94921F9A
:1046D0008091E10080FF19C08091E20080FF15C049
:1046E0008091E2008E7F8093E2008091E200806101
:1046F0008093E2008091D80080628093D80019BC3A
:1047000085E080937A020E94961F8091E10084FFE9
:1047100030C08091E20084FF2CC080E189BD82E13D
:1047200089BD09B400FEFDCF8091D8008F7D8093B4
:10473000D8008091E1008F7E8093E1008091E200BB
:104740008F7E8093E2008091E20081608093E2009E
:1047500080917602882311F084E007C08091E30005
:1047600087FD02C081E001C083E080937A020E944D
:10477000971F8091E10083FF29C08091E20083FFB1
:1047800025C08091E100877F8093E10082E08093E3
:104790007A02109276028091E1008E7F8093E10090
:1047A0008091E2008E7F8093E2008091E200806140
:1047B0008093E20042E060E080E00E94232280914A
:1047C000F00088608093F0000E94951FFF91EF91A8
:1047D000BF91AF919F918F917F916F915F914F9119
:1047E0003F912F910F900FBE0F901F9018951F9221
:1047F0000F920FB60F9211242F933F934F935F9315
:104800006F937F938F939F93AF93BF93CF93DF93D8
:10481000EF93FF93C091E900CF708091EC00D82F07
:10482000D17080FDD0E81092E9008091F000877F80
:104830008093F00078940E943B241092E9008091CC
:10484000F00088608093F000CD2BCF70C093E9001A
:10485000FF91EF91DF91CF91BF91AF919F918F9198
:104860007F916F915F914F913F912F910F900FBE6C
:104870000F901F9018951F93CF93DF93CDB7DEB79E
:10488000AA970FB6F894DEBF0FBECDBFEBE7F2E0FC
:104890008091F100819322E0E338F207C9F70E948A
:1048A000A21F8091E80083FF2EC180917B0290912E
:1048B0007C02492F50E04A30510508F024C1FA012A
:1048C000EC58FF4F0C94DD25803821F0823809F038
:1048D0001AC108C08091770290917802992389F0DB
:1048E00082600FC080917F028F70873008F00BC10B
:1048F0008093E9008091EB0085FB882780F9109276
:10490000E9009091E800977F9093E8008093F10090
:104910001092F100D1C0282F2D7F09F0F4C0882318
:1049200019F0823061F0EFC080917D02813009F092
:10493000EAC0933009F080E0809378022EC0809125
:104940007D0281112AC080917F028F702FEF280F86
:10495000263008F0D8C08093E9002091EB0020FFBA
:104960001CC0933021F48091EB00806214C09091C0
:10497000EB0090619093EB0021E030E0A90102C0D0
:10498000440F551F8A95E2F74093EA001092EA001F
:104990008091EB0088608093EB001092E900809199
:1049A000E800877F8093E8000E945822ACC0811104
:1049B000AAC010917D021F778091E3008078812B3F
:1049C0008093E3008091E800877F8093E8000E9455
:1049D00058228091E80080FFFCCF8091E30080683E
:1049E0008093E300111102C082E001C083E0809354
:1049F0007A0289C08058823008F085C080917D029B
:104A000090917E028C3D53E0950779F583E08A838F
:104A10008AE289834FB7F894DE01139620E03EE0E6
:104A200051E2E32FF0E050935700E49120FF03C0E0
:104A3000E295EF703F5FEF708E2F90E0EA3010F05C
:104A4000C79601C0C0968D939D932F5F243149F77F
:104A50004FBF8091E800877F8093E8006AE270E0B2
:104A6000CE0101960E94642116C060917F02709170
:104A70008002AE014F5F5F4F0E94A820BC01892BCE
:104A800009F441C09091E800977F9093E8008981F4
:104A90009A810E94C2218091E8008B778093E80080
:104AA00032C0803881F58091E800877F8093E800EC
:104AB000809176028093F1008091E8008E7772CF2A
:104AC000811121C080917D0290917E0299270297E9
:104AD000D4F48091E800877F8093E80080917D0284
:104AE000809376020E94582280917602811106C03E
:104AF0008091E30087FD02C081E001C084E08093E3
:104B00007A020E94981F8091E80083FF0AC080917A
:104B1000E800877F8093E8008091EB0080628093BB
:104B2000EB00AA960FB6F894DEBF0FBECDBFDF91A3
:104B3000CF911F9108950895CF9380917A02882391
:104B4000A1F0C091E900CF709091EC00892F8170A5
:104B500090FD80E8C82B1092E9008091E80083FD69
:104B60000E943B24CF70C093E900CF9108950E942A
:104B7000AA2210927A020895E8EDF0E08081806127
:104B800080838AE18A95F1F700C08091D900817015
:104B9000089597FB072E16F4009407D077FD09D0EF
:104BA0000E94E32507FC05D03EF4909581959F4F28
:104BB0000895709561957F4F0895EE0FFF1F059042
:104BC000F491E02D0994AA1BBB1B51E107C0AA1F59
:104BD000BB1FA617B70710F0A61BB70B881F991F9E
:104BE0005A95A9F780959095BC01CD010895F99942
:104BF000FECF92BD81BDF89A992780B50895A8E1AE
:104C0000B0E042E050E00C942B26262FF999FECF1D
:104C100092BD81BDF89A019700B4021639F01FBA0F
:104C200020BD0FB6F894FA9AF99A0FBE089503962C
:104C3000272F0E9406260E940526252F0E94062661
:104C4000242F0C9406260196272F0E9406260C94EA
:104C50000526DC01CB01FC01F999FECF06C0F2BDAF
:104C6000E1BDF89A319600B40D9241505040B8F72A
:064C70000895F894FFCF47
:104C7600012808643C0714B40104B50105B9013FD5
:104C860002FB1E581F391F351F311F01E200E900C4
:104C9600EA00B500B600B700CD008301CC008A015A
:104CA60092019401210223022402250226022702F0
:104CB6002A02B300B4006F0070008182836697C633
:104CC6003435F731333236000000000001020304A8
:104CD600050607080900E200E900EA00B500B6008B
:104CE600B700CD008301CC008A0192019401210214
:104CF600230224022502260227022A02B300B40058
:084D06006F0070008182830040
:00000001FF
